:1000000071C0000079C0000077C0000075C000001A
:1000100073C0000071C000006FC000006DC0000020
:100020006BC0000069C0000067C0000065C0000030
:1000300063C0000061C000005FC000005DC0000040
:100040005BC0000059C0000057C0000055C0000050
:1000500053C0000051C000004FC000004DC0000060
:100060004BC0000049C0000047C0000045C0000070
:1000700043C0000041C000003FC000003DC0000080
:100080003BC0000039C0000037C0000035C0000090
:1000900033C0000031C000002FC000002DC00000A0
:1000A0002BC0000029C0000027C0000025C00000B0
:1000B00023C0000021C000001FC000001DC00000C0
:1000C0001BC0000019C0000017C0000015C00000D0
:1000D00013C0000011C000000FC000000DC00000E0
:1000E0000BC0000011241FBECFEFD1E2DEBFCDBF99
:1000F00000E00CBF60D01EC283CFEF920F93CF936E
:10010000DF93CDB7DEB72F970FB6F894DEBF0FBEE3
:10011000CDBF9C838B834D835E836F8378872987D4
:100120000A87EB8680E492E4AFE0B0E02D813E8167
:100130004F815885BC01CD01CFD0DA01C9010197AB
:100140009A83898385EC90E029813A81232F332794
:10015000FC01208384EC90E02981FC01208381EC68
:1001600090E028E1FC01208382EC90E039852A852B
:10017000322B2B85232BFC0120832F960FB6F8946E
:10018000DEBF0FBECDBFDF91CF910F91EF900895ED
:10019000CF93DF9300D0CDB7DEB79A8389836B838B
:1001A00086EC90E02B81FC0120830F900F900F9044
:1001B000DF91CF910895EF920F93CF93DF93CDB757
:1001C000DEB761970FB6F894DEBF0FBECDBFCE018C
:1001D00041966894EE24E3F800E026E040E855E21A
:1001E00060E070E08ADF1A8219822981CE0141968F
:1001F000622FCEDF80E090E0AAEFB3E48B839C8394
:10020000AD83BE8320E030E04AE755E46B817C811A
:100210008D819E8104D1DC01CB018F839887A987D2
:10022000BA8720E030E040E85FE36F817885898518
:100230009A8574D088232CF481E090E09C878B878A
:100240003BC020E03FEF4FE757E46F817885898519
:100250009A85E1D018163CF520E030E040E251E408
:100260006B817C818D819E81DAD0DC01CB01BC0168
:10027000CD0158D0DC01CB019C878B870FC080E972
:1002800091E09E878D878D859E850197F1F79E87EA
:100290008D878B859C8501979C878B878B859C851B
:1002A000892B69F713C06F81788589859A853AD043
:1002B000DC01CB019C878B878B859C85988B8F87F6
:1002C0008F8598890197F1F7988B8F8789819A811B
:1002D00001969A83898389CFA1E21A2EAA1BBB1BA0
:1002E000FD010DC0AA1FBB1FEE1FFF1FA217B30702
:1002F000E407F50720F0A21BB30BE40BF50B661F18
:10030000771F881F991F1A9469F7609570958095DB
:1003100090959B01AC01BD01CF0108952FD008F449
:1003200081E0089557D088F09F5790F0B92F992712
:10033000B751A0F0D1F0660F771F881F991F1AF0F0
:10034000BA95C9F712C0B13081F05ED0B1E008951E
:100350005BC0672F782F8827B85F39F0B93FCCF39F
:10036000869577956795B395D9F73EF490958095E6
:10037000709561957F4F8F4F9F4F0895990F00089B
:10038000550FAA0BE0E8FEEF16161706E807F90767
:10039000C0F012161306E407F50798F0621B730B02
:1003A000840B950B39F40A2661F0232B242B252B83
:1003B00021F408950A2609F4A140A6958FEF811D26
:1003C000811D089557FD9058440F551F59F05F3F08
:1003D00071F04795880F97FB991F61F09F3F79F067
:1003E00087950895121613061406551FF2CF4695E9
:1003F000F1DF08C0161617061806991FF1CF86956B
:100400007105610508940895E894BB27662777274E
:10041000CB0197F90895B2DF08F48FEF08950BD060
:1004200078C069D028F06ED018F0952309F05AC032
:100430005FC01124EACFC6DFA0F3959FD1F3950FDB
:1004400050E0551F629FF001729FBB27F00DB11D58
:10045000639FAA27F00DB11DAA1F649F6627B00DE8
:10046000A11D661F829F2227B00DA11D621F739FD1
:10047000B00DA11D621F839FA00D611D221F749FDF
:100480003327A00D611D231F849F600D211D822F26
:10049000762F6A2F11249F5750408AF0E1F088236D
:1004A0004AF0EE0FFF1FBB1F661F771F881F91507A
:1004B0005040A9F79E3F510570F014C0A6CF5F3F92
:1004C000ECF3983EDCF3869577956795B795F795AD
:1004D000E7959F5FC1F7FE2B880F911D9695879535
:1004E00097F9089597F99F6780E870E060E00895B4
:1004F0009FEF80EC089500240A941616170618063C
:100500000906089500240A94121613061406050617
:100510000895092E0394000C11F4882352F0BB0FA8
:1005200040F4BF2B11F460FF04C06F5F7F4F8F4F0B
:080530009F4F0895F894FFCFDE
:00000001FF
