:1000000071C0000079C0000077C0000075C000001A
:1000100073C0000004C100006FC000006DC000008C
:100020006BC0000069C0000067C0000065C0000030
:1000300063C0000061C000005FC000005DC0000040
:100040005BC0000059C0000057C0000055C0000050
:1000500053C0000051C000004FC000004DC0000060
:100060004BC0000049C0000047C0000045C0000070
:1000700043C0000041C000003FC000003DC0000080
:100080003BC0000039C0000037C0000035C0000090
:1000900033C0000031C000002FC000002DC00000A0
:1000A0002BC0000029C0000027C0000025C00000B0
:1000B00023C0000021C000001FC000001DC00000C0
:1000C0001BC0000019C0000017C0000015C00000D0
:1000D00013C0000011C000000FC000000DC00000E0
:1000E0000BC0000011241FBECFEFD1E2DEBFCDBF99
:1000F00000E00CBFECD01EC283CFCF93DF93CDB70F
:10010000DEB72E970FB6F894DEBF0FBECDBF80E0EE
:1001100090E0A6E9B3E489839A83AB83BC8320E0B3
:1001200030E04AE755E469817A818B819C8177D1FF
:10013000DC01CB018D839E83AF83B88720E030E064
:1001400040E85FE36D817E818F819885E7D08823C9
:100150002CF481E090E09A8789873BC020E03FEF54
:100160004FE757E46D817E818F81988554D11816B1
:100170003CF520E030E040E251E469817A818B81F6
:100180009C814DD1DC01CB01BC01CD01CBD0DC0188
:10019000CB019A8789870FC080E991E09C878B8784
:1001A0008B859C850197F1F79C878B8789859A853C
:1001B00001979A87898789859A85892B69F713C062
:1001C0006D817E818F819885ADD0DC01CB019A87CE
:1001D000898789859A859E878D878D859E850197DC
:1001E000F1F79E878D878CE290E0FC018081882F5B
:1001F00090E08071992721E0892B09F420E02223E7
:1002000019F081E090E002C080E090E02E960FB6F9
:10021000F894DEBF0FBECDBFDF91CF9108951F923E
:100220000F9200905F000F92112400905B000F92DC
:100230002F933F934F935F936F937F938F939F93EE
:10024000AF93BF93EF93FF93CF93DF93CDB7DEB719
:1002500054DF21E0019709F020E0222309F180E03A
:1002600091E0FC018081882F90E08074992721E043
:10027000892B09F420E0222351F082E091E022E072
:1002800031E0F90120812F7BFC01208309C082E04D
:1002900091E022E031E0F90120812064FC0120831B
:1002A000DF91CF91FF91EF91BF91AF919F918F918E
:1002B0007F916F915F914F913F912F910F9000929D
:1002C0005B000F9000925F000F901F901895CF93E6
:1002D000DF93CDB7DEB78DE290E0FC0110828EE2B5
:1002E00090E02FEFFC01208381E091E020E4FC010D
:1002F000208382E091E02FEDFC01208381EC90E0EF
:10030000FC01108289E690E021E0FC0120838DE36E
:1003100090E020E1FC0120837894FFCF2FD008F4F7
:1003200081E0089557D088F09F5790F0B92F992712
:10033000B751A0F0D1F0660F771F881F991F1AF0F0
:10034000BA95C9F712C0B13081F05ED0B1E008951E
:100350005BC0672F782F8827B85F39F0B93FCCF39F
:10036000869577956795B395D9F73EF490958095E6
:10037000709561957F4F8F4F9F4F0895990F00089B
:10038000550FAA0BE0E8FEEF16161706E807F90767
:10039000C0F012161306E407F50798F0621B730B02
:1003A000840B950B39F40A2661F0232B242B252B83
:1003B00021F408950A2609F4A140A6958FEF811D26
:1003C000811D089557FD9058440F551F59F05F3F08
:1003D00071F04795880F97FB991F61F09F3F79F067
:1003E00087950895121613061406551FF2CF4695E9
:1003F000F1DF08C0161617061806991FF1CF86956B
:100400007105610508940895E894BB27662777274E
:10041000CB0197F90895B2DF08F48FEF08950BD060
:1004200078C069D028F06ED018F0952309F05AC032
:100430005FC01124EACFC6DFA0F3959FD1F3950FDB
:1004400050E0551F629FF001729FBB27F00DB11D58
:10045000639FAA27F00DB11DAA1F649F6627B00DE8
:10046000A11D661F829F2227B00DA11D621F739FD1
:10047000B00DA11D621F839FA00D611D221F749FDF
:100480003327A00D611D231F849F600D211D822F26
:10049000762F6A2F11249F5750408AF0E1F088236D
:1004A0004AF0EE0FFF1FBB1F661F771F881F91507A
:1004B0005040A9F79E3F510570F014C0A6CF5F3F92
:1004C000ECF3983EDCF3869577956795B795F795AD
:1004D000E7959F5FC1F7FE2B880F911D9695879535
:1004E00097F9089597F99F6780E870E060E00895B4
:1004F0009FEF80EC089500240A941616170618063C
:100500000906089500240A94121613061406050617
:100510000895092E0394000C11F4882352F0BB0FA8
:1005200040F4BF2B11F460FF04C06F5F7F4F8F4F0B
:080530009F4F0895F894FFCFDE
:00000001FF
