:1000000073C000009FC000009DC000009BC00000A6
:1000100099C0000097C0000095C0000093C0000088
:1000200091C000008FC000008DC000008BC0000098
:1000300089C0000087C0000085C0000083C00000A8
:1000400081C000007FC000007DC000007BC00000B8
:1000500079C0000077C0000075C0000073C00000C8
:1000600071C000006FC000006DC000006BC00000D8
:1000700069C0000067C0000065C0000063C00000E8
:1000800061C000005FC000005DC000005BC00000F8
:1000900059C0000057C0000055C0000053C0000008
:1000A00051C000004FC000004DC000004BC0000018
:1000B00049C0000047C0000045C0000043C0000028
:1000C00041C000003FC000003DC000003BC0000038
:1000D00039C0000037C0000035C0000033C0000048
:1000E00031C000007803840311241FBECFEFD1E29A
:1000F000DEBFCDBF00E00CBF12E0A0E0B2E0EAE658
:10010000F9E000E00BBF02C007900D92A23AB107E0
:10011000D9F722E0A2EAB2E001C01D92A43BB207E7
:10012000E1F710E0C3E7D0E000E005C02197010946
:10013000802FFE01F5D2C237D10780E00807B1F762
:1001400001D102C45DCFCF93DF9300D01F92CDB712
:10015000DEB79A8389836B834C838B81882F90E0F1
:10016000845A9D4FFC01208189819A81FC01208362
:100170008B81882F90E08A5E9D4FFC018081882FC3
:1001800090E0880F991F80509E4FFC0120813181A3
:1001900089819A81FC013283218321E08C8188232B
:1001A00009F420E089819A81FC01308189819A815A
:1001B000FC0181819281422F632F57D00F900F90C5
:1001C0000F900F90DF91CF910895CF93DF931F92FF
:1001D0001F92CDB7DEB79A8389830F900F90DF917E
:1001E000CF910895CF93DF9300D0CDB7DEB79A8338
:1001F00089836B8389819A81FC01208189819A811D
:10020000FC01818192814B81622F5CD00F900F9015
:100210000F90DF91CF910895CF93DF931F921F929C
:10022000CDB7DEB79A83898389819A8160E0DADF6E
:100230000F900F90DF91CF910895CF93DF931F928E
:100240001F92CDB7DEB79A83898389819A81FC0199
:10025000208189819A81FC0181819281622F5FD006
:100260000F900F90DF91CF910895CF93DF9300D03F
:100270001F92CDB7DEB79A8389836B834C838C81C1
:10028000882361F089819A81FC0191818B81292FDA
:10029000282B89819A81FC0121830DC089819A8153
:1002A000FC018181982F8B8180958923282F89815A
:1002B0009A81FC0121830F900F900F900F90DF9196
:1002C000CF910895CF93DF9300D01F92CDB7DEB7C3
:1002D0009A8389836B834C838C81882361F0898125
:1002E0009A81FC0192818B81292F282B89819A8107
:1002F000FC0122830DC089819A81FC018281982FA3
:100300008B8180958923282F89819A81FC01228302
:100310000F900F900F900F90DF91CF910895CF9392
:10032000DF9300D0CDB7DEB79A8389836B83898151
:100330009A812B81FC0120830F900F900F90DF9109
:10034000CF910895CF93DF93CDB7DEB7AA970FB6BD
:10035000F894DEBF0FBECDBF81EC90E0FC011082AF
:1003600061E082EA92E03EDF61E085EA92E03ADF16
:100370008EEA92E051DF8BEA92E04EDF88EA92E06B
:100380004BDF80E090E0AAE7B4E489839A83AB83F3
:10039000BC8320E030E04AE755E469817A818B81B3
:1003A0009C8147D2DC01CB018D839E83AF83B887CC
:1003B00020E030E040E85FE36D817E818F819885A9
:1003C000B7D188232CF481E090E09A8789873BC0DD
:1003D00020E03FEF4FE757E46D817E818F81988564
:1003E00024D218163CF520E030E040E251E4698167
:1003F0007A818B819C811DD2DC01CB01BC01CD01B6
:100400009BD1DC01CB019A8789870FC080E991E0FD
:100410009C878B878B859C850197F1F79C878B87C1
:1004200089859A8501979A87898789859A85892BF5
:1004300069F713C06D817E818F8198857DD1DC0144
:10044000CB019A87898789859A859E878D878D8537
:100450009E850197F1F79E878D8782EA92E0DCDE28
:1004600085EA92E0D9DE61E08EEA92E0BBDE61E0EF
:100470008BEA92E0B7DE61E088EA92E0B3DE80E0EA
:1004800090E0AAE7B4E48F87988BA98BBA8B20E021
:1004900030E04AE755E46F85788989899A89C9D11E
:1004A000DC01CB018B8B9C8BAD8BBE8B20E030E0D5
:1004B00040E85FE36B897C898D899E8939D18823E7
:1004C0002CF481E090E0988F8F8B3BC020E03FEFD1
:1004D0004FE757E46B897C898D899E89A6D11816D0
:1004E0003CF520E030E040E251E46F85788989896D
:1004F0009A899FD1DC01CB01BC01CD011DD1DC016A
:10050000CB01988F8F8B0FC080E991E09A8F898FF4
:10051000898D9A8D0197F1F79A8F898F8F89988DA0
:100520000197988F8F8B8F89988D892B69F713C0CE
:100530006B897C898D899E89FFD0DC01CB01988FE6
:100540008F8B8F89988D9C8F8B8F8B8D9C8D019736
:10055000F1F79C8F8B8F82EA92E06FDE85EA92E062
:100560006CDE8EEA92E069DE8BEA92E066DE88EA73
:1005700092E063DE80E090E0AAE7B4E48D8F9E8F86
:10058000AF8FB8A320E030E04AE755E46D8D7E8D53
:100590008F8D98A14ED1DC01CB0189A39AA3ABA387
:1005A000BCA320E030E040E85FE369A17AA18BA121
:1005B0009CA1BED088232CF481E090E09EA38DA363
:1005C0003BC020E03FEF4FE757E469A17AA18BA140
:1005D0009CA12BD118163CF520E030E040E251E41C
:1005E0006D8D7E8D8F8D98A124D1DC01CB01BC0156
:1005F000CD01A2D0DC01CB019EA38DA30FC080E969
:1006000091E098A78FA38FA198A50197F1F798A7DC
:100610008FA38DA19EA101979EA38DA38DA19EA1C5
:10062000892B69F713C069A17AA18BA19CA184D001
:10063000DC01CB019EA38DA38DA19EA19AA789A7C2
:1006400089A59AA50197F1F79AA789A784CFCF9397
:10065000DF9300D01F92CDB7DEB79A8389837C8366
:100660006B8389819A81019711F58B819C81019619
:10067000F1F441E060E082EA92E065DD41E061E0B2
:1006800085EA92E060DD41E06DE088EA92E05BDDC2
:1006900041E064E08BEA92E056DD41E066E08EEAFC
:1006A00092E051DD41E068E081EB92E04CDD898130
:1006B0009A81892BB1F48B819C81019691F481EB15
:1006C00092E083DD8EEA92E080DD8BEA92E07DDDD0
:1006D00088EA92E07ADD85EA92E077DD82EA92E0CC
:1006E00074DD0F900F900F900F90DF91CF910895D0
:1006F000CF93DF93CDB7DEB76FEF7FEF81E090E070
:10070000A6DFDF91CF910895CF93DF93CDB7DEB70A
:100710006FEF7FEF80E090E09ADFDF91CF91089557
:10072000EE0FFF1F881F8BBF0790F691E02D1994E5
:100730002FD008F481E0089557D088F09F5790F0AB
:10074000B92F9927B751A0F0D1F0660F771F881FF6
:10075000991F1AF0BA95C9F712C0B13081F05ED076
:10076000B1E008955BC0672F782F8827B85F39F014
:10077000B93FCCF3869577956795B395D9F73EF455
:1007800090958095709561957F4F8F4F9F4F0895FD
:10079000990F0008550FAA0BE0E8FEEF1616170692
:1007A000E807F907C0F012161306E407F50798F0FA
:1007B000621B730B840B950B39F40A2661F0232B13
:1007C000242B252B21F408950A2609F4A140A6958F
:1007D0008FEF811D811D089557FD9058440F551FBF
:1007E00059F05F3F71F04795880F97FB991F61F0B3
:1007F0009F3F79F087950895121613061406551F2A
:10080000F2CF4695F1DF08C0161617061806991F95
:10081000F1CF86957105610508940895E894BB278A
:1008200066277727CB0197F90895B2DF08F48FEF99
:1008300008950BD078C069D028F06ED018F09523B9
:1008400009F05AC05FC01124EACFC6DFA0F3959F1C
:10085000D1F3950F50E0551F629FF001729FBB27A7
:10086000F00DB11D639FAA27F00DB11DAA1F649F53
:100870006627B00DA11D661F829F2227B00DA11D06
:10088000621F739FB00DA11D621F839FA00D611D8C
:10089000221F749F3327A00D611D231F849F600DAD
:1008A000211D822F762F6A2F11249F5750408AF0E6
:1008B000E1F088234AF0EE0FFF1FBB1F661F771F72
:1008C000881F91505040A9F79E3F510570F014C009
:1008D000A6CF5F3FECF3983EDCF38695779567955E
:1008E000B795F795E7959F5FC1F7FE2B880F911D90
:1008F0009695879597F9089597F99F6780E870E036
:1009000060E008959FEF80EC089500240A94161685
:10091000170618060906089500240A9412161306ED
:10092000140605060895092E0394000C11F488237B
:1009300052F0BB0F40F4BF2B11F460FF04C06F5F97
:100940007F4F8F4F9F4F089510E0C3E7D0E000E046
:1009500005C0802FFE01E4DE2196011DC437D107BA
:0A09600080E00807B1F7F894FFCF1C
:10096A0020002300260029002C002F00320000015D
:10097A000301060109010404040406040707070722
:10098A00010101010808070703030303000000002F
:10099A000000000002020202020202020306060628
:1009AA000A0A0A0A0A0A0A0A0101010100000000E9
:1009BA0000000000000000000000000001021020FA
:1009CA00200808102040102040800201020108047B
:1009DA00020101020408102040808040201008040F
:1009EA000201800402018040201008040201080468
:1009FA0002010102040810204080010204081020AC
:020A0A0040802A
:00000001FF
